:100000000C949F090C94C7090C94C7090C94972869
:100010000C9497280C9497280C94C7090C94C70942
:100020000C94C7090C94C7090C94C7090C94C70910
:100030000C94C7090C94C7090C94C7090C94C70900
:100040000C94F5270C94C7090C9465280C943F2850
:100050000C94C7090C94C7090C94C7090C94C709E0
:100060000C94C7090C94C709206572726F720075F1
:100070006E6B6E6F776E0067656E6572616C007097
:1000800061636B657420636865636B73756D007085
:1000900061636B657420686561646572007061639B
:1000A0006B65742073697A650072782074696D6578
:1000B0006F75740061647665727469736500666952
:1000C0006C65206D69736D617463680066696C6549
:1000D00020696E64657800636865636B73756D0095
:1000E00073657269616C20737461636B00736C6516
:1000F00065700062757379003D3D3D2077726974CB
:100100006553657474696E6773546F466C61736888
:100110002829003D3D3D20726573657453657474F4
:10012000696E677328290031202D3E2032003D3D45
:100130003D20726573657453657474696E677328C6
:10014000290041646D696E204D656E752050696EA1
:100150003A200041646D696E204D656E75206C6FAC
:10016000636B65643A2000496E766572746564203D
:10017000566F6C756D6520427574746F6E733A209E
:1001800000536C6565702054696D65723A20004CAF
:100190006F636B65643A200045513A2000496E69EF
:1001A0007469616C20566F6C756D653A20004D69FD
:1001B0006E696D616C20566F6C756D653A20004DEF
:1001C0006178696D616C20566F6C756D653A2000C1
:1001D00056657273696F6E3A20003D3D3D206C6F2D
:1001E000616453657474696E677346726F6D466CB3
:1001F0006173682829003D3D3D20536C656570544E
:10020000696D65723A3A6C6F6F702829202D3E2017
:10021000534C45455021003D3D20536C656570545D
:10022000696D65723A3A67657441637469766528E9
:1002300029003D3D3D20467265657A6544616E63E7
:10024000653A3A7365744E65787453746F7041748F
:100250004D696C6C69732829003D3D2046726565C7
:100260007A6544616E63653A3A6C6F6F7028292035
:100270002D3E20465245455A4521003D3D204672BF
:1002800065657A6544616E63653A3A676574416392
:10029000746976652829003D3D204C6F636B656469
:1002A0003A3A68616E646C655061757365282920FF
:1002B0002D3E204C4F434B454421003D3D204C6F8B
:1002C000636B65643A3A68616E646C654E65787418
:1002D000427574746F6E2829202D3E204C4F434B7D
:1002E000454421003D3D204C6F636B65643A3A689C
:1002F000616E646C6550726576696F757342757472
:10030000746F6E2829202D3E204C4F434B454421CD
:10031000003D3D204C6F636B65643A3A68616E64E2
:100320006C65566F6C756D6555702829202D3E20C3
:100330004C4F434B454421003D3D204C6F636B6562
:10034000643A3A68616E646C65566F6C756D6544AD
:100350006F776E2829202D3E204C4F434B4544217A
:10036000003D3D204C6F636B65643A3A68616E6492
:100370006C65524649442829202D3E204C4F434B62
:10038000454421003D3D20546F64646C65724D6F9F
:1003900064653A3A68616E646C655061757365288E
:1003A00029202D3E204C4F434B454421003D3D200C
:1003B000546F64646C65724D6F64653A3A68616E3F
:1003C000646C654E657874427574746F6E2829206C
:1003D0002D3E204C4F434B454421003D3D20546F62
:1003E00064646C65724D6F64653A3A68616E646C02
:1003F0006550726576696F7573427574746F6E2897
:1004000029202D3E204C4F434B454421003D3D20AB
:10041000546F64646C65724D6F64653A3A68616EDE
:10042000646C65566F6C756D6555702829202D3E7E
:10043000204C4F434B454421003D3D20546F6464A4
:100440006C65724D6F64653A3A68616E646C6556AE
:100450006F6C756D65446F776E2829202D3E204C9A
:100460004F434B454421003D3D20546F64646C650F
:10047000724D6F64653A3A67657441637469766575
:100480002829003D3D204B696E6465726761726486
:10049000656E4D6F64653A3A68616E646C654E6571
:1004A00078742829202D3E204E455854003D3D208B
:1004B0004B696E64657267617264656E4D6F6465E9
:1004C0003A3A68616E646C654E657874427574740E
:1004D0006F6E2829202D3E204C4F434B4544210070
:1004E0003D3D204B696E64657267617264656E4D57
:1004F0006F64653A3A68616E646C655072657669DE
:100500006F7573427574746F6E2829202D3E204CD0
:100510004F434B454421003D3D204B696E6465725D
:1005200067617264656E4D6F64653A3A68616E64C6
:100530006C65524649442829202D3E207175657509
:10054000656421003D3D204B696E64657267617290
:1005500064656E4D6F64653A3A67657441637469AA
:1005600076652829003D3D205265706561745369A8
:100570006E676C654D6F6469666965723A3A686169
:100580006E646C654E6578742829202D3E20524596
:10059000504541542043555252454E5420545241E7
:1005A000434B003D3D2052657065617453696E6731
:1005B0006C654D6F6469666965723A3A6765744146
:1005C000637469766528290048C3B67262756368EA
:1005D000204D6F6475732069737420616B74697644
:1005E000202D3E206EC3A46368737465722054721C
:1005F00061636B20756E6420466F727473636872FA
:100600006974742073706569636865726E0045690A
:100610006E7A656C204D6F64757320616B746976BA
:10062000202D3E205374726F6D2073706172656E61
:1006300000456E646520646572205175657565209E
:100640002D3E20626567696E6E6520766F6E20763E
:100650006F726E65005061727479202D3E2077654F
:100660006974657220696E206465722051756575C4
:10067000652000416C62756D6D6F647573206973E0
:100680007420616B746976202D3E206EC3A463686C
:100690007374657220547261636B3A200048C3B66C
:1006A00072737069656C6D6F647573206973742003
:1006B000616B746976202D3E206B65696E656E20D6
:1006C0006E6575656E20547261636B207370696529
:1006D0006C656E003D3D3D206E65787454726163BB
:1006E0006B2829003D3D3D207365747374616E6411
:1006F000627954696D6572282920576572743D00CE
:100700003D3D3D2064697361626C657374616E6424
:1007100062792829003D3D3D20706F776572206F1A
:10072000666621003D3D3D20766F6C756D655570A8
:100730002829003D3D3D20766F6C756D65446F77CF
:100740006E28290048C3B67262756368204D6F64D5
:1007500075732069737420616B746976202D3E2057
:10076000766F726865726967657220547261636B37
:1007700020756E6420466F72747363687269747456
:100780002073706569636865726E0045696E7A658D
:100790006C204D6F64757320616B746976202D3EFB
:1007A00020547261636B20766F6E20766F726E6577
:1007B00020737069656C656E00416E66616E6720BE
:1007C000646572205175657565202D3E20737072C9
:1007D000696E676520616E7320456E646520005008
:1007E00061727479204D6F64757320697374206130
:1007F0006B746976202D3E207A7572C3BC636B20C2
:10080000696E2064657220516575657565200041CB
:100810006C62756D6D6F6475732069737420616BA4
:10082000746976202D3E20766F72686572696765FF
:100830007220547261636B003D3D3D20707265769D
:10084000696F7573547261636B2829005370657A00
:1008500069616C6D6F64757320566F6E2D4269739C
:100860003A205061727479202D3E204F72646E657B
:100870007220696E207A7566C3A46C6C69676572B4
:100880002052656968656E666F6C6765207769657B
:10089000646572676562656E00206269732000534B
:1008A00070657A69616C6D6F64757320566F6E2D1B
:1008B0004269733A20416C62756D3A20616C6C65D7
:1008C000204461746569656E207A77697363686531
:1008D0006E2053746172742D20756E6420456E64B1
:1008E000646174656920737069656C656E0020626F
:1008F000697320005370657A69616C6D6F647573FC
:1009000020566F6E2D42696E3A2048C3B6727370DE
:1009100069656C202D3E207A7566C3A46C6C69678E
:10092000656E20547261636B2077696564657267D8
:100930006562656E0048C3B67262756368204D6F6C
:10094000647573202D3E206B6F6D706C65747465DB
:100950006E204F72646E657220737069656C656E8F
:1009600020756E6420466F72747363687269747464
:10097000206D65726B656E0045696E7A656C204D01
:100980006F647573202D3E2065696E652044617427
:100990006569206175732064656D204F6472646EB3
:1009A0006572206162737069656C656E0053706971
:1009B000656C6520546974656C20005061727479AF
:1009C000204D6F647573202D3E204F72646E6572EA
:1009D00020696E207A7566C3A46C6C6967657220A5
:1009E00052656968656E666F6C67652077696564D6
:1009F0006572676562656E00416C62756D204D6F52
:100A0000647573202D3E206B6F6D706C657474651A
:100A10006E204F72646E65722077696564657267D7
:100A20006562656E0048C3B672737069656C6D6F00
:100A3000647573202D3E207A7566C3A46C6C69675B
:100A4000656E20547261636B2077696564657267B7
:100A50006562656E00204461746569656E20696E2B
:100A6000204F72646E657220003D3D20416E7A61B8
:100A7000686C20646572204461746569656E2069E4
:100A80006D204F72646E65722077657264656E20AA
:100A900065726D697474656C6E003D3D20706C61AB
:100AA00079466F6C646572280053686F7274637561
:100AB00074206E6F7420636F6E666967757265640B
:100AC0002100204D6F6475733A20003E3E3E3E206B
:100AD000537069656C65206E756E2053686F727413
:100AE0006375745B004B6172746520776972642072
:100AF0006E6575206B6F6E66696775726965727475
:100B000021004162676562726F6368656E21005201
:100B100065736574202D3E20454550524F4D20771A
:100B20006972642067656CC3B6736368740073632D
:100B3000687265696265204B617274652E2E2E00A5
:100B40004162676562726F6368656E2100204B6168
:100B5000727465206175666C6567656E00736368A5
:100B60007265696265204B617274652E2E2E00419C
:100B700062676562726F6368656E21003D3D3D206E
:100B800061646D696E4D656E752829003D3D3D209F
:100B90007365747570436172642829004D4946413C
:100BA00052455F57726974652829206661696C65D2
:100BB000643A2000202E2E2E0057726974696E67E9
:100BC000206461746120696E746F20626C6F636B66
:100BD00020005043445F41757468656E74696361B9
:100BE00074652829206661696C65643A2000417546
:100BF0007468656E7469636174696E6720554C2E04
:100C00002E2E0041757468656E7469636174696E37
:100C10006720616761696E207573696E67206B6517
:100C20007920412E2E2E00556E6B6E6F776E2065EB
:100C300072726F720041204D494641524520504921
:100C4000434320726573706F6E64656420776974C6
:100C500068204E414B2E00546865204352435F414B
:100C600020646F6573206E6F74206D617463682EED
:100C700000496E76616C696420617267756D656E9E
:100C8000742E00496E7465726E616C206572726FAD
:100C90007220696E2074686520636F64652E20532E
:100CA000686F756C64206E6F742068617070656E1B
:100CB0002E004120627566666572206973206E6F32
:100CC000742062696720656E6F7567682E005469CD
:100CD0006D656F757420696E20636F6D6D756E69DB
:100CE000636174696F6E2E00436F6C6C6973696F1A
:100CF0006E2064657465637465642E004572726F5E
:100D00007220696E20636F6D6D756E6963617469C1
:100D10006F6E2E00537563636573732E00574152D7
:100D20004E494E473A20436F6D6D756E696361742D
:100D3000696F6E206661696C7572652C206973201D
:100D4000746865204D4652433532322070726F70A0
:100D500065726C7920636F6E6E65637465643F00C5
:100D6000203D2028756E6B6E6F776E2900203D2028
:100D7000636F756E74657266656974206368697007
:100D800000203D2076322E3000203D2076312E305E
:100D900000203D2076302E3000203D2028636C6FEF
:100DA0006E6529004669726D7761726520566572BD
:100DB00073696F6E3A20307800546F6E55494E4F0C
:100DC000207265616479005265736574202D3E2040
:100DD000454550524F4D20776972642067656CC35A
:100DE000B67363687400496E6974205368757464DF
:100DF0006F776E50696E00496E6974204275747425
:100E00006F6E00496E6974204E46432D52656164D1
:100E1000657200496E6974204D50332D506C6179B4
:100E2000657200202000466C617368766572736994
:100E30006F6E200050726F6A656B747265706F73AD
:100E400069746F72792068747470733A2F2F6769B0
:100E5000746875622E636F6D2F68776F697A2F548F
:100E60006F6E4D4F42494C004C697A656E7A6965E8
:100E7000727420756E74657220474E552F47504C22
:100E800000576569746572656E747769636B6C751C
:100E90006E6720766F6E20546F6E55494E4F205608
:100EA000657273696F6E20322E312C20546F72730D
:100EB00074656E20566F73732068747470733A2F64
:100EC0002F746F6E75696E6F2E6465002000486127
:100ED00072616C6420576F697A697363686B65002F
:100EE000546F6E4D4F42494C2056657273696F6E58
:100EF00020002000202020207C5F7C5F5F5F2F7C13
:100F00005F7C207C5F7C5F7C20207C5F7C5F5F5F00
:100F10005F2F7C5F5F5F5F2F5F5F5F5F5F7C5F5F07
:100F20005F5F5F5F7C00202020207C207C20285F8A
:100F300029207C207C207C207C207C20207C207C24
:100F4000207C5F5F7C207C207C5F29207C7C207C57
:100F50005F7C207C5F5F5F5F2000202020207C2062
:100F60007C2F205F207C20275F207C207C2F7C2012
:100F70007C207C20207C207C20205F203C207C204A
:100F80007C207C207C202020202000202020207C11
:100F9000207C205F5F5F20205F205F5F207C20201F
:100FA000202F207C207C20207C207C207C5F29201E
:100FB0007C7C207C207C207C202020202000207C29
:100FC0005F5F2020205F5F7C2020202020202020C9
:100FD0007C20202F20207C2F205F5F207C20205F22
:100FE000205F2020205F7C207C20202020200020EB
:100FF000205F5F5F5F5F5F5F202020202020202038
:1010000020205F5F20205F5F20205F5F5F5F2020E8
:101010005F5F5F5F205F5F5F5F5F205F202020205A
:101020002020003D3D3D2052657065617453696E1E
:10103000676C654D6F6469666965722829003D3D7E
:101040003D204B696E64657267617264656E4D6FB9
:1010500064652829003D3D3D20546F64646C6572D1
:101060004D6F64652829003D3D3D204C6F636B65E5
:10107000642829003D3D3D20467265657A654461DE
:101080006E63652829003D3D3D20536C65657054B5
:10109000696D6572282900556E6B6E6F776E2074CE
:1010A0007970650053414B20696E646963617465B2
:1010B0007320554944206973206E6F7420636F6DEF
:1010C000706C6574652E004D494641524520544E62
:1010D0005033585858004D494641524520444553D5
:1010E00046697265004D494641524520506C757302
:1010F000004D494641524520556C7472616C6967D8
:101100006874206F7220556C7472616C69676874C2
:101110002043004D494641524520344B42004D4941
:101120004641524520314B42004D494641524520EF
:101130004D696E692C2033323020627974657300FA
:101140005049434320636F6D706C69616E74207702
:101150006974682049534F2F49454320313830394D
:101160003220284E464329005049434320636F6D87
:10117000706C69616E7420776974682049534F2FD1
:101180004945432031343434332D34006D6F646964
:10119000666965722072656D6F766564003A004419
:1011A000617461206F6E204361726420004D494676
:1011B0004152455F526561645F3428292066616948
:1011C0006C65643A20004D49464152455F52656165
:1011D000645F332829206661696C65643A20004D9C
:1011E00049464152455F526561645F322829206655
:1011F00061696C65643A20004D49464152455F5231
:101200006561645F312829206661696C65643A20F4
:10121000004D49464152455F526561642829206668
:1012200061696C65643A2000202E2E2E00526561A3
:1012300064696E6720646174612066726F6D2062FC
:101240006C6F636B20005043445F41757468656E3A
:101250007469636174652829206661696C65643A04
:10126000200041757468656E7469636174696E67A6
:10127000204D494641524520554C2E2E2E00417599
:101280007468656E7469636174696E6720436C612C
:1012900073736963207573696E67206B657920418C
:1012A0002E2E2E005049434320747970653A200059
:1012B00043617264205549443A0000000000240054
:1012C00027002A00000000080002010000030407B4
:1012D0000000000000000000203D3D3D003D3D3D80
:1012E0002000204F7074696F6E7329003D3D3D20D2
:1012F000766F6963654D656E7528292028000000AA
:10130000000023002600290001020408102040806C
:10131000010204081020010204081020000000004F
:10132000250028002B000404040404040404020221
:10133000020202020303030303030F29643511248D
:101340001FBECFEFD8E0DEBFCDBF12E0A0E0B1E01E
:10135000E8E3F0E702C005900D92AE39B107D9F786
:1013600025E0AEE9B2E001C01D92A33AB207E1F771
:1013700019E0CEE9D9E004C02197FE010E94D436DD
:10138000CD39D107C9F70E94822A0C940F380C94EA
:101390000000FC018781882399F04285538564858C
:1013A000758586859785A089B189481B590B6A0B7D
:1013B0007B0B81E0483E53406105710508F480E0F5
:1013C00008958CBD9DBD08958F929F92AF92BF925C
:1013D000CF92DF92EF92FF92CF934B01AA24BB24CE
:1013E000C82DC52ED62EE72EFF24BC2DA42F20916C
:1013F0009105222361F0829E40011124C92D2C9D6C
:1014000060011124BD2D249FF0011124AF2FE09124
:101410009705E0909205F090930530919405E313C1
:1014200023C09C01220F331F820F931F8E0D9F1D1F
:10143000E0919405E80FF92FF11DC083E091950527
:10144000E80FF92FF11DB08320919605820F911DB1
:10145000FC01A083CF91FF90EF90DF90CF90BF90E1
:10146000AF909F908F900895880F991F880F991FB4
:101470008E0D9F1D472F552766277727222349F07A
:1014800030E0249F7001259FF00C349FF00C112454
:101490004F2DE80FF92FF11D4083CACFCF92DF9275
:1014A000EF92FF920F931F93CF93DF9300918B05E1
:1014B00010918C0501151105D9F04115510521F048
:1014C0004017510708F48A016B017C01D0E0C0E0AD
:1014D00080918B0590918C05C817D90728F4B70126
:1014E000A601CE010E94E40921960C171D0781F781
:1014F000DF91CF911F910F91FF90EF90DF90CF90F0
:101500000895DC0190919105992361F0699FB001E4
:101510001124672F949FA0011124452F929F9001C1
:101520001124232F30919705E0919205F0919305B6
:101530008091940538131AC0CD01880F991F8A0F26
:101540009B1F8E0F9F1FE0919405E80FF92FF11D4F
:101550006083E0919505E80FF92FF11D40833091EC
:101560009605830F911DFC0120830895CD01880FFE
:10157000991F880F991F8E0F9F1FFC01E30FF11D0C
:101580001082E1CFCF92DF92EF92FF929C01AAEFFF
:10159000B5E00E949D36DC01CB019058AF4FBF4FA4
:1015A000CD01BB2797FDB095AB2F8E3F41E094074F
:1015B00090F5682F8F3F910508F44CC04EEF481B03
:1015C00050E06FEF30E0262FAFE1B0E00E949D3693
:1015D0006B017C01CC24EE24FF24252F0E949D3634
:1015E000672F782F892F9927C62AD72AE82AF92A20
:1015F000242F0E949D36982F872F762F66276627E7
:10160000772799276C297D298E299F29FF90EF90B4
:10161000DF90CF9008958C3F43E0940760F452E050
:10162000580F6FEF8D3F42E0940718F06CEF681B86
:101630005FEF40E0C7CF8A3F45E0940771F05AEF73
:10164000581B8B3F44E0940748F444E0480F5FEF99
:1016500060E0B8CF50E04FEFB5CF50E060E0FBCF97
:10166000833081F028F4813099F08230A9F0089518
:101670008730A9F08830C9F08430B1F480918000BF
:101680008F7D03C0809180008F77809380000895C4
:1016900084B58F7784BD089584B58F7DFBCF80910D
:1016A000B0008F778093B00008958091B0008F7D57
:1016B000F9CFCF93DF93282F30E0F901EC53FD4EA3
:1016C0008491F901E85FFC4ED491F901EA5DFC4E8A
:1016D000C491CC23A1F081110E94300BEC2FF0E0DB
:1016E000EE0FFF1FE250FD4EA591B491EC91ED235A
:1016F00081E090E009F480E0DF91CF91089580E0EF
:1017000090E0FACF1F93CF93DF93282F30E0F901B9
:10171000EC53FD4E8491F901E85FFC4ED491F90140
:10172000EA5DFC4EC491CC23A9F0162F81110E94D2
:10173000300BEC2FF0E0EE0FFF1FE45EFC4EA591A6
:10174000B4918FB7F894EC91111108C0D095DE23B5
:10175000DC938FBFDF91CF911F910895DE2BF8CFDF
:10176000CF93DF9390E0FC01E85FFC4E24918A5D0B
:101770009C4EFC0184918823C9F090E0880F991F4A
:10178000FC01E654FD4EA591B491FC01E45EFC4ED3
:10179000C591D49161110DC09FB7F8948C9120959B
:1017A00082238C938881282328839FBFDF91CF9148
:1017B0000895623051F49FB7F8943C91822F809540
:1017C00083238C93E8812E2BEFCF8FB7F894EC9185
:1017D0002E2B2C938FBFEACF3FB7F89480916904EA
:1017E00090916A04A0916B04B0916C0426B5A89BFB
:1017F00005C02F3F19F00196A11DB11D3FBFBA2FA3
:10180000A92F982F8827BC01CD01620F711D811D62
:10181000911D42E0660F771F881F991F4A95D1F7E7
:1018200008950F931F93CF93DF93CDB7DEB729971A
:101830000FB6F894DEBF0FBECDBF80919205909198
:101840009305892B09F47CC00E94EC0B009198054C
:101850001091990520919A0530919B0560177107A9
:101860008207930740F460939805709399058093DD
:101870009A0590939B0500919805109199052091E8
:101880009A0530919B05601B710B820B930B6C3298
:10189000714081059105C0F2F89480918D05909179
:1018A0008E059A838983E0919205F0919305DF017B
:1018B00011968081898790918905E0919C05F0912E
:1018C0009D0580919E05992309F445C09081982B30
:1018D00098879081809589238F838F818C8388E07E
:1018E0008B8358856F8149853B812C8189819A81C1
:1018F000508347FD252F3A952083262F39F0441F2A
:1019000000C000006083000000C0F2CF38E04D91BD
:1019100060830000019761F7F0939D05E0939C05BB
:1019200049873B832C839A83898378940E94EC0BAC
:10193000609398057093990580939A0590939B0501
:1019400029960FB6F894DEBF0FBECDBFDF91CF91C1
:101950001F910F9108959081982B98879081809581
:1019600089238F838F818E8388E08D8358856F8153
:1019700049853D812E8189819A81508347FD252F9C
:1019800000C000C0208300C000C000C000C000C074
:1019900060830000262F3A9541F0441F000000C0EC
:1019A00000C000C000C000C0E8CF38E04D9100C0CA
:1019B000608300C0019709F7F0939D05E0939C05B3
:1019C00049873D832E83AFCF8F929F92AF92BF9274
:1019D000CF92DF92EF92FF924B015C010E94EC0BE1
:1019E0006B017C010E94EC0B6C197D098E099F092B
:1019F000683E734081059105A8F321E0821A9108A1
:101A0000A108B10888EEC80E83E0D81EE11CF11CC5
:101A100081149104A104B10429F7FF90EF90DF90A5
:101A2000CF90BF90AF909F908F9008952FB7F8946C
:101A300060916504709166048091670490916804D8
:101A40002FBF08958F929F92AF92BF92CF92DF9255
:101A5000EF92FF920F931F93CF93DF93EC016A01F4
:101A60007B0110E000E00E94160D688779878A8765
:101A70009B87E881F9810284F385E02DCE010995E9
:101A800097FF21C00E94160D88849984AA84BB8484
:101A9000681979098A099B098C809D80AE80BF8076
:101AA000681579058A059B0520F3C801DF91CF9160
:101AB0001F910F91FF90EF90DF90CF90BF90AF906C
:101AC0009F908F900895F70181937F010F5F1F4FC3
:101AD000C016D10641F6E9CFAF92BF92CF92DF9206
:101AE000EF92FF920F931F93CF93DF936C017B01D3
:101AF0008B01040F151FEB015E01AE18BF08C01764
:101B0000D10759F06991D601ED91FC910190F081D6
:101B1000E02DC6010995892B79F7C501DF91CF9199
:101B20001F910F91FF90EF90DF90CF90BF90AF90FB
:101B30000895FC01538D448D252F30E0842F90E0D3
:101B4000821B930B541710F0CF96089501970895B8
:101B5000FC01918D828D981761F0A28DAE0FBF2F81
:101B6000B11D5D968C91928D9F5F9F73928F90E0D7
:101B700008958FEF9FEF0895FC01918D828D981746
:101B800031F0828DE80FF11D858D90E008958FEF83
:101B90009FEF08950F931F930E94160D60937E048C
:101BA00070937F04809380049093810486E794E08F
:101BB0000E94BC0D97FF1DC00E94160D00917E046F
:101BC00010917F042091800430918104601B710B7F
:101BD000820B930B00917A0410917B0420917C047A
:101BE00030917D046017710782079307F8F28FEF39
:101BF0009FEF1F910F910895FC01918D228D892FE8
:101C000090E0805C9F4F821B91098F739927089504
:101C100086E794E00E94FC0D21E0892B09F420E086
:101C2000822F089580E090E0892B29F00E94080E11
:101C300081110C9400000895FC01A48DA80FB92F08
:101C4000B11DA35ABF4F2C91848D90E001968F73E4
:101C50009927848FA689B7892C93A089B1898C9103
:101C6000837080648C93938D848D981306C0028852
:101C7000F389E02D80818F7D80830895EF92FF921C
:101C80000F931F93CF93DF93EC0181E0888F9B8D9F
:101C90008C8D98131AC0E889F989808185FF15C059
:101CA0009FB7F894EE89FF896083E889F98980817C
:101CB0008370806480839FBF81E090E0DF91CF914B
:101CC0001F910F91FF90EF900895F62E0B8D10E06D
:101CD0000F5F1F4F0F731127E02E8C8D8E110CC0DC
:101CE0000FB607FCFACFE889F989808185FFF5CF27
:101CF000CE010E941C0EF1CFEB8DEC0FFD2FF11DDC
:101D0000E35AFF4FF0829FB7F8940B8FEA89FB8963
:101D100080818062CFCF0F931F93CF93DF938C018D
:101D2000D0E0C0E0F801EC0FFD1F6491662341F0A4
:101D300086E794E00E943E0E892B11F02196F2CFA7
:101D4000CE01DF91CF911F910F910895CF93DF9333
:101D5000EC01888D8823B9F0AA89BB89E889F989C3
:101D60008C9185FD03C0808186FD0DC00FB607FCF8
:101D7000F7CF8C9185FFF2CF808185FFEDCFCE012B
:101D80000E941C0EE9CFDF91CF9108952091EB02C4
:101D90003091EC022817390771F49091E902809193
:101DA000EA02981741F0E091E902F0E0E755FD4FB3
:101DB000808190E008958FEF9FEF08950895EF924E
:101DC000FF920F931F93CF93DF93DC015C96ED900E
:101DD000FC905D97E114F10479F481E090E01396B2
:101DE0009C938E93129790E080E0DF91CF911F91AA
:101DF0000F91FF90EF9008955196ED91FC915297BD
:101E000050968C915097982F90950FB75E962C9185
:101E10005E97122F127021FD6095F8942081112396
:101E200019F1282B2083E7012197F1F728E0462FAD
:101E300050E0308160FF1AC0382B3083E7012197D2
:101E4000F1F7BA0175956795215089F7112381F053
:101E50008081892380830FBF5C968D919C9101972F
:101E6000F1F781E090E0C1CF2923DCCF3923E5CF22
:101E70009081892BEFCF2091EB023091EC02281753
:101E8000390771F48091EA022091E90290E0805CC8
:101E90009F4F821B910960E470E00E94C036089554
:101EA00090E080E008952091EB023091EC02281739
:101EB0003907B9F49091E9028091EA02981789F004
:101EC000E091E902F0E0E755FD4F80812091E902C1
:101ED00030E02F5F3F4F2F7333272093E90290E0CC
:101EE00008958FEF9FEF089590E080E00895BC0182
:101EF0006E5F7F4FDC01ED91FC910190F081E02D50
:101F000040E0099591E0811190E0892F0895843097
:101F1000F1F050F4813091F030F1823091F0833063
:101F200099F087E29CE008958630B9F098F0873008
:101F3000B9F08F3FB1F785E39CE008958CEF9CE00A
:101F4000089588EE9CE008958EEC9CE0089582EB65
:101F50009CE0089583E89CE0089581E79CE0089563
:101F600087E59CE0089584E19DE0089508958EBD85
:101F700000000DB407FEFDCF8EB50895DF92EF92FD
:101F8000FF920F931F93CF93DF937C01062FD42EE4
:101F9000152F80E590E00E94E10960E0F701868559
:101FA0000E94820B82E10E94B70FCD2DD12F0C0F22
:101FB0001D2F111DC017D10721F089910E94B70F65
:101FC000F9CF61E0F7018685DF91CF911F910F91E5
:101FD000FF90EF90DF900C94820B1F93CF93DF93D1
:101FE000EC01162F80E590E00E94E10960E08E850B
:101FF0000E94820B812F80680E94B70F80E00E94B0
:10200000B70F182F61E08E850E94820B812FDF9120
:10201000CF911F9108950F931F93CF93DF93EC01FE
:10202000062F142F80E590E00E94E10960E08E8584
:102030000E94820B802F0E94B70F812F0E94B70F42
:1020400061E08E85DF91CF911F910F910C94820BEF
:10205000CF92DF92EF92FF920F931F93CF93DF9374
:10206000EC016B01F42E890140E062E00E940B104C
:1020700044E06AE0CE010E940B1040E864E1CE012A
:102080000E940B10A6016F2DCE010E94BE0F43E0EF
:1020900062E0CE010E940B100E94160D6B017C01C4
:1020A00029E5C20ED11CE11CF11C6AE0CE010E94A0
:1020B000ED0F82FF1BC040E062E0CE010E940B10DA
:1020C00064E4CE010E94ED0FF801808362E4CE014A
:1020D0000E94ED0FF801818380E0DF91CF911F9185
:1020E0000F91FF90EF90DF90CF9008950E94160D12
:1020F0006C157D058E059F05C0F283E0EECF2F9213
:102100003F924F925F926F927F928F929F92AF9287
:10211000BF92CF92DF92EF92FF920F931F93CF93D4
:10212000DF9300D0CDB7DEB73C01162F942E2901E6
:1021300080E0A114B10411F0F5018081382C3294B3
:1021400090EF3922380E40E062E0C3010E940B108C
:102150004FE768E0C3010E940B1040E864E1C3014F
:102160000E940B10A201602FC3010E94BE0F432DDD
:102170006AE1C3010E940B10412F62E0C3010E947B
:102180000B101C3051F46AE1C3010E94ED0F482F7F
:1021900040686AE1C3010E940B100E94160D1B01EA
:1021A0002C01F4E22F0E311C411C511C68E0C301CC
:1021B0000E94ED0F982F992109F0B6C080FF16C03C
:1021C00083E00F900F90DF91CF911F910F91FF90BF
:1021D000EF90DF90CF90BF90AF909F908F907F90C7
:1021E0006F905F904F903F902F9008950E94160D32
:1021F0006215730584059505C8F2E2CFE114F10478
:1022000009F467C0C114D10409F463C064E1C301D7
:102210000E94ED0F982EF6018081891508F47EC08A
:1022200090829920C9F180E590E00E94E10960E088
:10223000F30186850E94820B9A9482E90E94B70F6F
:10224000882099F00FEF10E001C0000F8A94EAF7A0
:1022500082E90E94B70F902F9095F7012081922379
:102260008023982B9083882483948701080D111D67
:10227000891440F482E90E94B70FF80181938F011D
:102280008394F6CF80E00E94B70FF801808361E06D
:10229000F30186850E94820B68E1C3010E94ED0F65
:1022A0008770A114B10411F0F501808353FC38C08C
:1022B000E114F104B9F1C114D104A1F19F8999236A
:1022C00089F1F6014081413031F4843029F58FEFF6
:1022D00078CF80E0EBCF4230F8F081111DC0425042
:1022E0009E012F5F3F4FB701C3010E94281081114B
:1022F00068CFF6019081E90EF11CF7013297208139
:102300009981291309C0F1E0EF1AF108F701208142
:102310009A81291709F455CF87E053CF84E051CF34
:1023200082E04FCF80E04DCF6CE0C3010E94ED0F03
:10233000582E837109F462CF81E043CF6F927F9270
:102340008F92AF92BF92CF92DF92EF92FF920F9354
:10235000CF93DF93CDB7DEB764970FB6F894DEBFA7
:102360000FBECDBF3C018BE18983809170048A83CD
:10237000809171048B83809172048C8380917304AB
:102380008D839E012A5F3F4F45E0BE016F5F7F4F07
:1023900089E495E00E94281081111BC01C8A85E009
:1023A0008B8B1F92812CCE0144965C01FE017396AB
:1023B0006F0143977C0107E09C0140E36CE089E4F6
:1023C00095E00E947F109981F30190839A81918317
:1023D0000F9064960FB6F894DEBF0FBECDBFDF91AD
:1023E000CF910F91FF90EF90DF90CF90BF90AF9083
:1023F0008F907F906F9008958F92AF92BF92CF92FF
:10240000DF92EF92FF920F93CF93DF93CDB7DEB7BA
:102410002C970FB6F894DEBF0FBECDBF90E6998320
:102420008A83E0E7F4E0DE01139681918D9384E0E6
:10243000E637F807D1F7E0914B05E150FF0BE75B7A
:10244000FA4FDE011996CE010D9621912D93A81712
:10245000B907D9F71F92812CB12CA12CD12CC12CFA
:10246000F12CE12C0CE09E012F5F3F4F40E16EE02C
:1024700089E495E00E947F100F902C960FB6F89497
:10248000DEBF0FBECDBFDF91CF910F91FF90EF90D8
:10249000DF90CF90BF90AF908F9008958F92AF92C2
:1024A000BF92CF92DF92EF92FF920F931F93CF9341
:1024B000DF9300D000D0CDB7DEB780E589831A82E4
:1024C0009E012D5F3F4F42E0BE016F5F7F4F89E469
:1024D00095E00E942810182F811119C01F92812C9D
:1024E000B12CA12CD12CC12CF12CE12C04E09E01AB
:1024F0002F5F3F4F40E36CE089E495E00E947F103E
:102500000F90833021F0182F811101C011E0812F2D
:102510000F900F900F900F90DF91CF911F910F911F
:10252000FF90EF90DF90CF90BF90AF908F90089585
:102530008F92AF92BF92CF92DF92EF92FF920F9362
:10254000CF93DF93FA019081923148F16A01EB0158
:1025500090E3988389839B012E5F3F4F42E089E49B
:1025600095E00E94281081110FC081E08F93812C8B
:10257000B12CA12C7E0104E09E0140E36CE089E4D3
:1025800095E00E947F100F90DF91CF910F91FF9007
:10259000EF90DF90CF90BF90AF908F90089584E040
:1025A000F3CF0F931F93CF93DF938C01D62FC42FBC
:1025B0000E94ED0FC0954C2F48236D2FC801DF916D
:1025C000CF911F910F910C940B1048E060E189E4CA
:1025D00095E00C94D1126F927F928F92AF92BF923E
:1025E000CF92DF92EF92FF920F93CF93DF9300D0C1
:1025F00000D01F92CDB7DEB73C0182E08D8340E072
:1026000064E2C3010E940B1040E066E2C3010E9435
:102610000B1046E268E4C3010E940B1086E28B8334
:102620008D818230C8F140E86CE1C3010E94D11273
:1026300087E08C831F92812CCE0104965C01019669
:102640006C0104977C0101E09E012D5F3F4F40E348
:102650006CE0C3010E947F10982F0F90811119C068
:102660008D818230C9F48C81811116C081E00F9078
:102670000F900F900F900F90DF91CF910F91FF90DF
:10268000EF90DF90CF90BF90AF908F907F906F9042
:10269000089581E0923059F380E0E9CF2F923F9284
:1026A0004F925F926F927F928F929F92AF92BF9262
:1026B000CF92DF92EF92FF920F931F93CF93DF930E
:1026C000CDB7DEB72E970FB6F894DEBF0FBECDBFE5
:1026D00006E0413508F046C14E873B012C0140E839
:1026E0006CE10E94D11283E989832E85222329F08F
:1026F00081E0F3019081953008F480E0992493946F
:102700001C869C85990F990F990F1E85191B17FD23
:1027100010E032E0882319F098E89B8333E021E051
:10272000912F977009F420E0912F959595959595A7
:10273000290FD1F094E0811193E0291708F4922F2A
:102740002C85E22FF0E03196E60DF71D232F419105
:10275000A1E0B0E0AC0FBD1FA20FB11D4C932F5FE5
:10276000422F431B491798F38111185F10320CF464
:1027700084C080E78A838B819C8189279D818927FA
:102780009E8189278F839E01285F3F4F47E0BE01CE
:102790006F5F7F4FC2010E942810082F8111E2C095
:1027A0001A8693E09B871D87FE0137961F0109E07B
:1027B0008A84482D4295407F480D6AE1C2010E94FB
:1027C0000B101F92CE010A965C01FE013B966F0131
:1027D00071019E012F5F3F4F40E36CE0C2010E94F8
:1027E0007F10082F0F90823009F065C06CE1C201A4
:1027F0000E94ED0F85FDB6C08F7109F480E2282F8D
:1028000030E0412F110F550B421753070CF09EC0BB
:10281000182FE22FE595E595E595EF5F922F9770DC
:1028200081E009F480E0E80F81E090E08C0F9D1FCB
:102830008E0F911DFC01215031092770332781E053
:1028400090E002C0880F991F2A95E2F79C018081D1
:10285000822B80838BCF85E98983FE85FF2331F02E
:1028600081E0F3019081983008F04BCF80E049CFB0
:1028700087E98983F6E0FC87F9CF912F97709A87D3
:10288000812F8595859585958E5F282F2295207FB0
:10289000290F2A8301E0911101C000E0080F2224D2
:1028A0002394312C2C0E3D1E280E311CF9E0F81B10
:1028B000FB871D877DCF811155C010E29D85903229
:1028C0000CF457CF8B81883809F042C083E093E045
:1028D0002C85E22FF0E03196E60DF71D980FA1E070
:1028E000B0E0AC0FBD1FA80FB11D2C9121938F5FDD
:1028F0008913F5CF8B858C87833009F04DC08A858D
:1029000081114AC09E012D5F3F4F41E0B101C201DC
:102910000E942810082F811125C09B81F10181811F
:1029200098133CC09C818281981338C0808182FFBB
:1029300012C09394F2E09F1609F48DCF23E0921613
:1029400009F496CF81E0981609F4CDCE05E00AC0CF
:1029500082E094E0BDCFF3018387892D880F980E24
:1029600093949082802F2E960FB6F894DEBF0FBE00
:10297000CDBFDF91CF911F910F91FF90EF90DF902E
:10298000CF90BF90AF909F908F907F906F905F900F
:102990004F903F902F90089501E0E4CF07E0E2CF01
:1029A000CF92DF92EF92FF920F931F93CF93DF931B
:1029B000EC010E94160D6B017C0188810E94590B6D
:1029C0009C018E8191E0811104C0232B21F490E0C1
:1029D00002C0232BE1F74E855F85688979899701CD
:1029E0008601041B150B260B370B49815A816B811D
:1029F0007C81041715072607370778F41986CA86DD
:102A0000DB86EC86FD868F81DF91CF911F910F9140
:102A1000FF90EF90DF90CF9008958F8188879F83FC
:102A2000292F28272987981751F3CE86DF86E88A31
:102A3000F98AE5CF87E395E00E94D01485E295E01E
:102A40000E94D01483E195E00C94D01484E00E949D
:102A5000590B21E0892B09F020E0822F089583E0B3
:102A6000089580E0089580E008950895FC0127818D
:102A7000211102C08185089580E00895EF92FF92B0
:102A80000F931F93CF93DF938C01C0E0FF24F39447
:102A900082E0E82ED3E0C43050F50E941A1587E397
:102AA00095E00E94C909811122C087E395E00E9448
:102AB0003615882329F0F801EC0FF11DF082CF5F65
:102AC00085E295E00E943615882329F0F801EC0F85
:102AD000F11DE082CF5F83E195E00E9436158823E7
:102AE000D1F2F801EC0FF11DD083CF5FD4CF81E09C
:102AF000DF91CF911F910F91FF90EF900895E9E83A
:102B0000F5E04481558170E060E0818592850C9408
:102B10000838FC0101900020E9F73197AF01481B0C
:102B2000590BBC0186E794E00C946C0D8DE092E0AB
:102B30000C948915CF93DF930E948B0EEC010E94B9
:102B400096158C0F9D1FDF91CF910895CF92DF9244
:102B5000EF92FF92C0909E02D0909F02E090A00260
:102B6000F090A102C114D104E104F104C9F00E9463
:102B7000160DC616D706E806F90690F485E197E02B
:102B80000E949A1561E087E00E94820B64EF71E079
:102B900080E090E0FF90EF90DF90CF900C94E40CF9
:102BA000FF90EF90DF90CF90089580E097E00E9433
:102BB0009A1510929E0210929F021092A0021092FB
:102BC000A102089583EA95E00E949A1586E008958F
:102BD00084E495E00E949A1585E008950F931F9371
:102BE000CF93DF93EC018B0187E195E00E949A156A
:102BF00089E0F801DE01129601900D928A95E1F7C5
:102C000081E08B870E942615811107C0E881F98138
:102C10000480F581E02DCE01099581E0DF91CF910F
:102C20001F910F91089580EE94E00E949A1581E023
:102C300008958DEA94E00E949A1581E0089587E650
:102C400094E00E949A1584E0089589E394E00E943C
:102C50009A1581E008958DE094E00E949A1581E034
:102C600008958BED93E00E949A1581E008958DEA16
:102C700093E00E949A1581E0089584E893E00E9411
:102C80009A1581E0089581E693E00E949A1581E00B
:102C9000089588E393E00E949A1581E0089581E108
:102CA00093E00E949A1581E0089584EE92E00E94DC
:102CB0009A1581E008958BEB92E00E949A1581E0CD
:102CC000089587E992E00E949A1581E008958BE7C4
:102CD00092E00E949A1582E0089587E192E00E94B6
:102CE0009A1581E0089586309105E9F1A0F48330CA
:102CF000910599F140F48130910521F1029751F14C
:102D00008FE690E021C08430910551F10597C1F71D
:102D10008CEC90E019C08238910559F148F4873065
:102D2000910521F18138910559F789EA90E00CC0AD
:102D30008438910521F100F18F3F910509F787E76C
:102D400090E002C083EF90E00E948B0E88E690E056
:102D50000C949A158DEE90E0F7CF80EE90E0F4CFD2
:102D600087ED90E0F1CF8EEB90E0EECF84EB90E03A
:102D7000EBCF8DE990E0E8CF8FE890E0E5CF8FE7EB
:102D800090E0E2CF8F929F92AF92BF920F931F93EA
:102D9000CF93DF93CDB7DEB7A1970FB6F894DEBF20
:102DA0000FBECDBF19A2423008F44AE08E010F5D7C
:102DB0001F4F842E912CB12CA12CA50194010E94AF
:102DC0007B36E62FB901CA01EA30F4F4E05DD801A0
:102DD000EE938D01232B242B252B79F790E080E0B7
:102DE000109719F0CD010E948915A1960FB6F8949D
:102DF000DEBF0FBECDBFDF91CF911F910F91BF906E
:102E0000AF909F908F900895E95CE1CF462F682F97
:102E100070E090E080E00C94C216CF93DF936AE0FC
:102E200070E00E940617EC010E9496158C0F9D1F02
:102E3000DF91CF910895CF92DF92EF92FF92CF93DF
:102E4000DF9397FF1BC06B017C016DE286E794E086
:102E50000E943E0EEC0166277727CB016C197D0995
:102E60008E099F094AE00E94C2168C0F9D1FDF91B8
:102E7000CF91FF90EF90DF90CF9008954AE0DF91DF
:102E8000CF91FF90EF90DF90CF900C94C216CF932C
:102E9000DF93BC0190E080E04AE00E94C216EC01A2
:102EA0000E9496158C0F9D1FDF91CF910895CF92B0
:102EB000DF92EF92FF9284EE96E00E948B0E60917B
:102EC00004047091050480910604909107040E9407
:102ED0001B170E9496158091040490910504A091FF
:102EE0000604B0910704892B8A2B8B2B69F10E9471
:102EF000160D6B017C012091040430910504409172
:102F0000060450910704A0E6BAEE0E946836C60E89
:102F1000D71EE81EF91EC0929E02D0929F02E09238
:102F2000A002F092A10260919E0270919F02809196
:102F3000A0029091A1024AE00E94C216FF90EF9079
:102F4000DF90CF900C94961510929E0210929F02E3
:102F50001092A0021092A102E6CFCF93DF930E94BD
:102F60008915EC010E9496158C0F9D1FDF91CF9162
:102F700008950C948915EF92FF920F931F93CF93AE
:102F8000DF93EC018C01060F111DC017D10799F0DA
:102F90007E018881803160F087E892E00E94B91755
:102FA000219660E170E0F70180810E940617EDCF65
:102FB00080E192E0F3CFDF91CF911F910F91FF90CD
:102FC000EF9008950F931F93CF93C82F8B0181FF2C
:102FD00004C083E192E00E94B917C0FF04C08DE1F4
:102FE00092E00E94B917C3FF04C082E292E00E94FF
:102FF000B917C801CF911F910F910C94AD178F9203
:10300000AF92BF92CF92DF92EF92FF920F93CF9346
:10301000DF93CDB7DEB764970FB6F894DEBF0FBE6F
:10302000CDBF062FE62EF12CA701BC01CE010196E3
:103030000E94FF3721E030E02C0F3D1F2E0D3F1D79
:10304000402FBE016F5F7F4F89E495E00E942810FA
:10305000811123C082E18C8B1B8A0E5F1F92812C11
:10306000CE0143965C0101966C0143977C019C0163
:1030700040E36CE089E495E00E947F100F9081119D
:103080000CC08C898130D1F48B898430B9F481E013
:1030900099819A3009F480E0819564960FB6F8948E
:1030A000DEBF0FBECDBFDF91CF910F91FF90EF90AC
:1030B000DF90CF90BF90AF908F90089581E0EDCFDB
:1030C0000F931F93CF93DF9300D0CDB7DEB78B0163
:1030D00090EA99838A8362E0CE0101960E94FF17ED
:1030E000811104C060E1C8010E94FF170F900F908A
:1030F000DF91CF911F910F9108951F93CF93DF938D
:10310000EC01162F0E943336181739F0612FCE01CB
:10311000DF91CF911F910C943B36DF91CF911F919E
:103120000895CF93DF93EC01809162049091630442
:10313000009751F48091A4029091A5028C179D07ED
:1031400069F4DF91CF910895DC01ED91FC91048049
:10315000F581E02D0995882369F3F3CFD093A5027B
:10316000C093A40280914E04882359F384ED96E025
:103170000E949A15E091F703F091F8038181813064
:1031800011F0873031F48DE996E00E949A150E9483
:103190005717E091F703F091F8038181823011F025
:1031A0008830F9F460916004709161048091A60206
:1031B0009091A7026817790709F495C06F5F7F4F58
:1031C000709361046093600480810E940D1B83E70B
:1031D00096E00E948B0E80916004909161040E94A1
:1031E0004717E091F703F091F8038181833011F0E4
:1031F000893099F5C0916004D09161048091A60254
:103200009091A70201962091A2023091A302821B05
:10321000930B8C179D0709F469C085E596E00E9421
:103220008B0E2196D0936104C0936004E0916004FA
:10323000F0916104E950FD4F80810E940D17E091EB
:103240006004F0916104E950FD4FA091F703B09143
:10325000F80360818C910E940D1BE091F703F091BF
:10326000F8038181843031F48EE096E00E949A1553
:103270000E945717E091F703F091F80381818530A0
:1032800051F5C0916004D09161048091A6029091A3
:10329000A702C817D907A9F12196D0936104C0935A
:1032A000600488EC95E00E948B0ECE010E944717C7
:1032B000E091F703F091F8036091600480810E942F
:1032C0000D1BE091F703F091F80380816091600499
:1032D00090E00E947D1864EF71E080E090E0DF9163
:1032E000CF910C94E40C0E9457177BCF81E396E0BA
:1032F0000E949A1581E090E09093610480936004AD
:1033000095CF808161E090E00E947D180E94571760
:10331000E2CFCF93DF93EC0189E292E00E94AD17F8
:1033200064EF71E080E090E00E94E40C8091A802DC
:10333000811105C0CE01DF91CF910C949118DF91DE
:10334000CF910895BF92CF92DF92EF92FF920F93A9
:103350001F93CF93DF93CDB7DEB72A970FB6F894BC
:10336000DEBF0FBECDBFD82E8AE0B82E8E010F5F14
:103370001F4FEE24E394FF24FA94CC24C394D80185
:10338000EB2D1D92EA95E9F741E050E0B8018091FC
:10339000590590915A050E94220D813009F068C0AC
:1033A00089818E3789F749E050E0BE016E5F7F4F1B
:1033B0008091590590915A050E94220D8F5F8A30A5
:1033C00008F468C08A818F3F09F067C08B8186301E
:1033D00009F063C08A858F3E09F05FC09C81288513
:1033E00039853227232732276D81492F50E04A5FE4
:1033F0005F4F640F752F711D4E81640F711D4F81DA
:10340000460F572F511DB701641B750B2617370741
:1034100009F046C02E813F81322723273227DD2045
:1034200009F441C0D91256C0C9012A960FB6F894C2
:10343000DEBF0FBECDBFDF91CF911F910F91FF90E7
:10344000EF90DF90CF90BF900895C9010E94891935
:10345000D11095CF3CC0C092610567E372E0C9010D
:103460000E94E217F5CFC09261056EE372E0F7CFDC
:1034700081E890E00E9473168091590590915A0559
:10348000DC01ED91FC910084F185E02D0995892BFB
:10349000F9F61DC082E890E0EDCF83E890E0EACF36
:1034A00084E890E0E7CF9F3358F49C3370F69A336A
:1034B000D1F29B3361F4C092610565E472E0CFCF35
:1034C0009F3349F2903419F4C9010E94731630E019
:1034D00020E0AACF9F3348F49C3308F0B6CF9A334C
:1034E00011F29B3309F04BCFE6CF9F3309F4B3CFF2
:1034F000903409F044CFE8CF8091590590915A0556
:10350000DC01ED91FC910084F185E02D09950A978D
:1035100024F080E00E94A219EFCF08950F931F932B
:10352000CF93DF93CDB7DEB72A970FB6F894DEBFFF
:103530000FBECDBF96E0FE013596DF01292F1D920B
:103540002A95E9F74EE749834FEF4A839B839FEE25
:103550009A878C83272F30E07E836F8390E08B5F88
:103560009E4F4D81840F911D280F391F620F732FBD
:10357000711D719561957109788769870E94160D93
:1035800000915B0510915C0520915D0530915E0511
:10359000AB01BC01401B510B620B730B80915F05AB
:1035A00090916005B0E0A0E0481759076A077B07D3
:1035B00048F40E947C1A61E070E080E090E00E9494
:1035C000E40CDCCF82E390E09093600580935F058C
:1035D0008091590590915A05DC01ED91FC91028092
:1035E000F381E02D4AE050E0BE016F5F7F4F099507
:1035F0000E94160D60935B0570935C0580935D05DA
:1036000090935E052A960FB6F894DEBF0FBECDBF2D
:10361000DF91CF911F910F910895782F8FE00C9437
:103620008E1ACF93DF938091620490916304009788
:1036300049F588E398E00E949A15E091F703F0912C
:10364000F8038181823051F58FE098E00E949A154D
:1036500080916004909161042091A2023091A302B4
:103660008217930729F00197909361048093600477
:10367000E091F703F091F8036091600480810E946B
:103680000D1B0EC0DC01ED91FC910284F385E02D51
:103690000995882371F2DF91CF9108958830A1F2C6
:1036A000E091F703F091F8038181833011F08930C4
:1036B00041F5C0916004D0916104C130D10509F495
:1036C0006CC08FED97E00E948B0E2197D093610420
:1036D000C0936004E0916004F0916104E950FD4FF3
:1036E00080810E940D17E0916004F0916104E9501F
:1036F000FD4FA091F703B091F80360818C910E9477
:103700000D1BE091F703F091F8038181843069F497
:103710008BE897E00E949A15E091F703F091F80387
:103720006091600480810E940D1BE091F703F0918D
:10373000F8038181853019F584E497E00E949A1599
:1037400080916004909161048130910529F0019786
:103750009093610480936004E091F703F091F80383
:103760006091600480810E940D1BE091F703F0914D
:10377000F80380816091600490E00E947D1868EEFB
:1037800073E080E090E00E94E40C68EE73E080E07B
:1037900090E0DF91CF910C94E40C89EB97E00E94CC
:1037A0008B0E8091A6029091A70290936104809362
:1037B000600490CF85E695E00E949A1562E370E080
:1037C00080E090E00E94E40C0E942615811118C050
:1037D000E091F703F091F80391816091600470919A
:1037E00061048081933011F0993021F469507D4F4C
:1037F000FB0160810E940D1B1092A5021092A40291
:1038000081E00895BC0183E10C948E1A70E060E0C1
:103810008EE00C948E1A0F931F93CF93DF93FC01CD
:103820004281538164817581452B462B472BF9F0EA
:10383000EC010E94160D0A811B812C813D81061727
:1038400017072807390798F486EF91E00E949A1528
:103850000E94061C0E945717109263041092620483
:10386000CE01DF91CF911F910F910C947637DF91AC
:10387000CF911F910F91089570E060E08DE00C945E
:103880008E1ABC0182E10C948E1ADF92EF92FF92A5
:103890000F931F93CF93DF93CDB7DEB7A9970FB6E2
:1038A000F894DEBF0FBECDBF09A31AA32BA33CA380
:1038B0004DA35EA36FA378A789A77E0189E1E80ED7
:1038C000F11C88E0F70111928A95E9F783E1898B71
:1038D00087E38A8B83EB8B8B87E48C8B82E08D8BE9
:1038E0008EA18E8B8FA18F8B88A5888F89A5898FBC
:1038F000E0915605EF7710E0E13420F4F0E0E25675
:10390000FE4F10810DEF010F033040F583E09CE086
:103910000E949A1587E00E94FC118093EE02D090DD
:10392000EE02DD2041F182ED9BE00E948B0E8D2D99
:103930000E94870F0E949A1581E991E00E94411C24
:10394000A9960FB6F894DEBF0FBECDBFDF91CF9121
:103950001F910F91FF90EF90DF9008951630F9F6C8
:1039600019821A828EEE9BE00E949A15CE01019672
:103970000E949E11D2CF89EB9BE00E948B0E6AE0E1
:1039800070E084E00E94061784EB9BE00E949A1589
:1039900060E1CE0141960E94BB170E949615BE01C0
:1039A0006F5E7F4F84E0033008F454C0163009F096
:1039B00055C08E010B5F1F4F8CE0D82EF8018D2D66
:1039C00011928A95E9F784E0FE017196DE01119665
:1039D00001900D928A95E1F7BE016F5F7F4F88E0FD
:1039E0000E946018F8018D2D11928A95E9F784E004
:1039F000FE017596DE01119601900D928A95E1F710
:103A0000BE016F5F7F4F89E00E946018F8018D2D25
:103A100011928A95E9F784E0F701DE011196019091
:103A20000D928A95E1F7BE016F5F7F4F8AE00E9499
:103A30006018F8011192DA94E9F784E0FE017D96AE
:103A4000DE01119601900D928A95E1F7BE016F5F3C
:103A50007F4F8BE00E9460188093EE021091EE027F
:103A600080E991E0112359F08CE99BE00E948B0ED4
:103A7000812F0E94870F0E949A1581E991E00E9490
:103A8000411C0E94961560ED77E080E090E00E9476
:103A9000E40C56CF80916204909163040097C1F4C6
:103AA00083E397E00E949A1590910004809153045B
:103AB000981750F470E060E085E00E948E1A8091C3
:103AC0005304815080935304809153040C940D1738
:103AD000DC01ED91FC910684F785E02D09958823A2
:103AE000F9F2089580916204909163040097C1F403
:103AF00084E297E00E949A159091FF03809153040D
:103B0000891750F470E060E084E00E948E1A809182
:103B100053048F5F80935304809153040C940D17CA
:103B2000DC01ED91FC910484F585E02D0995882355
:103B3000F9F20895CF92DF92EF92FF920E94160D54
:103B40006B017C0128EEC20E23E0D21EE11CF11CA9
:103B50000E947C1A0E942615811107C00E94160D32
:103B60006C157D058E059F0598F368EE73E080E087
:103B700090E00E94E40C0E947C1A0E94261581119C
:103B8000FACFFF90EF90DF90CF9008954F925F9221
:103B90006F927F929F92AF92BF92CF92DF92EF92FD
:103BA000FF920F931F93CF93DF936C01CB015A01C8
:103BB000D22F009711F00E94411C8CEE92E10E94DE
:103BC0008B0EB6010D2C000C880B990B0E941B1755
:103BD00082EE92E10E949A15CE2D9924939486E765
:103BE00094E00E94FC0D181619060CF069C00E94A2
:103BF000CA0DFC0197FD60C08D32910521F0C09780
:103C00000A9708F051C0412C512C3201F12CE130BF
:103C1000F105D9F0ED32F10509F44BC0CF01C097A1
:103C20000A9798F4AAE0B0E0A30192010E946836D6
:103C30002F01FF0F66087708460E571E681E791E73
:103C400080E3481A51086108710886E794E00E94F1
:103C5000A80D0E94CA0DFC01C0970A97C0F2E1307E
:103C6000F105A9F2FF2041F07094609450944094C3
:103C7000411C511C611C711CC201892B09F1C41427
:103C8000D504F4F0C42D8C2FDF91CF911F910F91AB
:103C9000FF90EF90DF90CF90BF90AF909F907F907C
:103CA0006F905F904F90089586E794E00E94A80D72
:103CB0009ECFFF24F394C9CF412C512C3201DCCF8D
:103CC0000E941A150E947C1A87E395E00E94C90998
:103CD000882359F082E293E00E94411C81E08093A6
:103CE0006F040E94A615CE2DCECF87E395E00E94EB
:103CF00036158823B1F0CC2371F08DED92E10E944E
:103D00008B0E6AE070E08C2F0E94061788ED92E11E
:103D10000E949A15B8CF68EE73E080E090E00E94B0
:103D2000E40C85E295E00E94C909882371F16C2EAC
:103D3000712C8AE0680E711CC614D7040CF436018D
:103D4000C62D862D0E940D17C501860D911D0E945E
:103D5000411C0E949A1D90926E0483E195E00E949E
:103D6000C909882309F444C0CB3008F4CBE0CA5019
:103D70008C2F0E940D17C5018C0F911D0E94411CB4
:103D80000E949A1D90926D042ACF85E295E00E94D0
:103D90003615882311F380916E04811126C06C2E94
:103DA000712C8FEF681A780AC614D7040CF4360108
:103DB000C62D862D0E940D17C501860D911D0E94EE
:103DC000411CDD2351F20E949A1D61E0862D0115F0
:103DD000110511F0662D802F0E940D1B68EE73E017
:103DE00080E090E00E94E40CB8CF10926E04B5CF52
:103DF00083E195E00E943615882309F4F0CE809186
:103E00006D04811121C0C23008F4C2E0C1508C2F72
:103E10000E940D17C5018C0F911D0E94411CDD23CE
:103E200009F4DDCE0E949A1D61E08C2F0115110569
:103E300011F06C2F802F0E940D1B68EE73E080E064
:103E400090E00E94E40CCBCE10926D04C8CECF93CC
:103E5000DF93EC018091590590915A05DC01ED91B9
:103E6000FC910084F185E02D09951816190624F4BB
:103E700080E00E94A219EECFBE018EE40E948E1A4D
:103E80008EE4DF91CF910C94A219EF92FF920F93E1
:103E90001F93CF93DF93EC01F12CE12C10E000E0B5
:103EA00021E050E040E06DE271E083E690E00E94A6
:103EB000C61D8883811108C080E0DF91CF911F91DA
:103EC0000F91FF90EF900895F12CE12C10E000E0AD
:103ED00020E046E351E066E371E089E090E00E9473
:103EE000C61D8983882341F3843069F4088110E07A
:103EF000C8010E94271F21E050E040E060E471E02B
:103F00000E94C61D8A838981863019F418828FEF3A
:103F10008983898187508330F0F4088110E0C801DB
:103F20000E94271FF12CE12C21E050E040E061E4E9
:103F300071E00E94C61DE82E8A83088110E0C80146
:103F40000E94271FF12C21E050E040E062E471E084
:103F50000E94C61D8B8381E0B0CF0F931F93CF9338
:103F6000DF93CDB7DEB729970FB6F894DEBF0FBE4B
:103F7000CDBF0E94061C8CE89BE00E949A15CE01E2
:103F800006960E94451F882389F00E94061C0E9405
:103F900026158111FCCF09811A812B813C814D812D
:103FA0005E816F81788589850E94451C68EE73E08B
:103FB00080E090E00E94E40C29960FB6F894DEBFF2
:103FC0000FBECDBFDF91CF911F910F910895FF924A
:103FD0000F931F93CF93DF9388EF90E00E949A1581
:103FE0000AEF13E0C4E6D0E0F801F1908F01CE01B2
:103FF0000E943336F81621F06F2DCE010E943B3619
:104000002196C838D10581F7DF91CF911F910F918B
:10401000FF90089583E191E00E949A15EAEFF3E0A2
:1040200087E493EBA7E3B3E180839183A283B38317
:1040300022E0248389E1858326838FE0878381E0E2
:104040008087118645E050E060E070E0428753874A
:1040500064877587868793E09787908B34E0338BEE
:10406000948B278B908F838F948F178E80A381A33F
:1040700082A383A30C94E71F0F931F93CF93DF9327
:104080008AED91E00E949A150AEF13E0C4E6D0E0B1
:10409000CE010E943336F80181938F012196C838F2
:1040A000D105B1F78091FA039091FB03A091FC0335
:1040B000B091FD038734934BA743B34111F00E94A5
:1040C0000A20C091FE03C130B9F48EE291E00E9453
:1040D0009A1587E291E00E949A1582E08093FE0390
:1040E00010921904C0931A04C0931B04C0931C04BB
:1040F000C0931D040E94E71F80ED91E00E948B0E8B
:104100008091FE030E940D178FEB91E00E948B0EB1
:104110008091FF030E940D178EEA91E00E948B0EA2
:10412000809100040E940D178DE991E00E948B0E92
:10413000809101040E940D1788E991E00E948B0E86
:10414000809102040E940D178FE891E00E948B0E6F
:104150006091030470E090E080E00E941B170E94D1
:10416000961581E891E00E948B0E60910404709195
:10417000050480910604909107040E941B170E9479
:10418000961587E691E00E948B0E6091080470E01E
:1041900090E080E00E941B170E94961583E591E055
:1041A0000E948B0E809119040E940D1782E491E009
:1041B0000E948B0E6AE070E080911A040E9406173C
:1041C0006AE070E080911B040E9406176AE070E0CC
:1041D00080911C040E94061780911D04DF91CF91ED
:1041E0001F910F910C940D174F925F926F927F92D7
:1041F0008F929F92AF92BF92CF92DF92EF92FF92F7
:104200000F931F93CF93DF93CDB7DEB729970FB6E8
:10421000F894DEBF0FBECDBF182F0E94D5150E94A7
:10422000061C8CE79BE00E949A1510924E04111117
:1042300099C080911904813009F18230B1F58FED78
:1042400093E00E94411CCE0101960E943E158823F6
:10425000A9F090911A048981981310C090911B04C1
:104260008A8198130BC09B8180911C04981306C00F
:104270009C8180911D04981709F474C029960FB68B
:10428000F894DEBF0FBECDBFDF91CF911F910F918C
:10429000FF90EF90DF90CF90BF90AF909F908F9066
:1042A0007F906F905F904F900895833009F05AC0CF
:1042B0000E94DB352AE030E040E050E00E944936C1
:1042C0004B015C017C016B012AE0C20ED11CE11C98
:1042D000F11C1C2D0E94DB352B013C0180EE93E08C
:1042E0000E94411C0E949A1DC6010E94411C0E940E
:1042F000DB3522E030E040E050E00E94493661309A
:1043000071058105910509F06FC0C301B20129E073
:1043100030E040E050E00E944936DC01CB010196DC
:10432000A11DB11DB82EC80E0E949A1D81EE93E00A
:104330000E94411C0E949A1D8B2D90E00E94411CFE
:104340008C2D0E940D17F12CE12C10E000E020E0F4
:1043500050E040E070E060E08FEF90E00E94C61D0A
:10436000C8128CCFF12CE12C10E000E020E044E8F2
:1043700053E064E873E08CE090E00E94C61D90E09A
:10438000009709F47BCF8130910509F060C080E28D
:1043900093E00E94411C87E395E00E94D01485E2DF
:1043A00095E00E94D01483E195E00E94D01485E24C
:1043B00095E00E943615811106C083E195E00E94C8
:1043C0003615882381F182E09BE00E948B0E82E209
:1043D00093E00E94411C0E944E120E94E5120E942E
:1043E000E71F0E9457174ACF31E0C316D104E104FA
:1043F000F10489F00E94DB35A5019401275F3F4F4E
:104400004F4F5F4F0E9449366B017C012FEFC21A5C
:10441000D20AE20AF20ABC2C1C19C12E0E949A1D73
:1044200082EE93E085CF89E495E00E94EB12882329
:1044300009F4B1CF89E495E00E94770F882359F2FF
:1044400085EE9AE00E948B0E0E94AD1FC4CF823091
:104450009105D1F4E0910004F0E0E090FF03F12C2D
:10446000EE1AFF0A10E000E020E0AF0162EA73E01C
:104470008EE190E08E1B9F0B0E94C61D9091000460
:10448000890F8093FF03ABCF8330910599F4E090BF
:104490000004F12C8091FF0310E000E020E050E0E8
:1044A00040E063EA73E08150990B0E94C61D80933F
:1044B000000495CF8430910511F52091000430E07F
:1044C000E0900104F12CE21AF30A8FEFE81AF80ADF
:1044D000A901415051098091FF0390E0821B930B89
:1044E00010E000E020E064EA73E001960E94C61D3F
:1044F000909100049150890F8093010470CF853012
:104500009105C1F4E0900204F12C10E000E020E0FD
:1045100048E953E068E973E086E090E00E94C61D38
:1045200080930204282F2150330BB90187E00E94A9
:104530008E1A55CF8630910509F081C087E493EB40
:10454000A7E3B3E189839A83AB83BC8381E08D8346
:104550001E8218861986F12CE12C10E000E020E084
:104560004AEC53E06AEC73E086E090E00E94C61DDE
:10457000D82E882309F433CF31E083130EC020E016
:1045800040EC53E060EC73E084E090E00E94C61DD4
:10459000823039F1E8F4813009F180E293E00E9441
:1045A000411C0E941A1585E295E00E943615811182
:1045B00006C083E195E00E9436158823B1F08FE6AE
:1045C0009BE00E949A1582E293E00E94411C56CE25
:1045D000833049F0843009F78CE301C085E0888797
:1045E000DCCF8FE0FCCF8EE1FACF89E495E00E942A
:1045F000EB128823B1F289E495E00E94770F8823BB
:1046000009F4EDCE8DE59BE00E949A15DF820981C9
:104610001A812B813C814D815E816D2D7885898544
:104620000E94451C64E670E080E090E00E94E40C8B
:104630000E944E120E94E5120E949A1DD0CE873031
:104640009105E1F4F12CE12C10E000E020E04CEACF
:1046500053E06CEA73E084E090E00E94C61D815054
:10466000990B880F991F880F991F875F9B4F0E9496
:10467000451F80E991E00E94411CB1CE8830910530
:1046800009F03FC0F12CE12C10E000E020E040EC0C
:1046900053E060EC73E085E090E00E94C61D83303B
:1046A00031F150F48130B1F0823009F098CE8FE0D2
:1046B00090E0A0E0B0E012C08430F1F0853009F065
:1046C0008ECE1092040410920504109206041092EB
:1046D000070485CE85E090E0A0E0B0E0809304047C
:1046E00090930504A0930604B093070478CE8EE15E
:1046F00090E0A0E0B0E0F2CF8CE390E0A0E0B0E08A
:10470000EDCF8930910509F087C087E493EBA7E3EB
:10471000B3E189839A83AB83BC8381E08D8384E09A
:104720008F83F12CE12C10E000E021E050E040E02C
:104730006DE271E083E690E00E94C61DC82EA82EAF
:10474000B12CC5010E94271F850121E050E040E007
:1047500061E471E00E94C61DD82EC5010E94271F8A
:10476000ED2CF12C21E050E040E062E471E00E9489
:10477000C61DF82E88EA93E00E94411C0E949A1DF3
:10478000FD1408F42CCE8D2D90E00E94411CD8869B
:104790006AE070E08D2D0E9406178DE49BE00E9478
:1047A0009A150E941A1585E295E00E94361581112E
:1047B00030C083E195E00E94361581112AC089E45A
:1047C00095E00E94EB12882361F389E495E00E9452
:1047D000770F8823E1F08EE29BE00E949A15CE824B
:1047E00009811A812B813C814D815C2D6F817885F7
:1047F00089850E94451C64E670E080E090E00E949C
:10480000E40C0E944E120E94E5120E949A1DD3945D
:10481000B7CF80E49BE0D5CE8A309105B1F4F12C7E
:10482000E12C10E000E020E045EA53E065EA73E0A7
:1048300082E090E00E94C61D823021F481E08093E6
:104840000804CDCD10920804CACD8B309105B1F487
:104850008FE09BE00E949A15F12CE12C60E0C701EB
:104860000E947D188FEFE81AF80AE11424E0F2069E
:10487000A9F70E940A2087EE93E0FDCE0C9709F07D
:10488000AECDF12CE12C10E000E020E044ED53E04F
:1048900064ED73E084E090E00E94C61D90E08130FA
:1048A000910519F4109219049ACD8230910521F4E2
:1048B00081E08093190493CD83309105C9F48FED85
:1048C00093E00E94411CCE0101960E943E15882370
:1048D00009F485CD89819A81AB81BC8180931A04CA
:1048E00090931B04A0931C04B0931D0482E0E1CFBD
:1048F000049709F074CD83E0DCCF8091620490913D
:104900006304009789F40E94DB3520E030E041E049
:1049100050E00E944936CB010E94911868EE73E086
:1049200080E090E00C94E40CDC01ED91FC910084BB
:10493000F185E02D0995882331F308958F929F9298
:10494000AF92BF92CF92DF92EF92FF92CF93DF931D
:10495000EC01CF80D12C8FEFC81AD80A0D2C000C97
:10496000EE08FF088E80912CB12CA12C8C149D0494
:10497000AE04BF048CF4C818D908EA08FB0841F05B
:104980000E94DB35A70196010E9449366B017C012C
:104990008C0C9D1CAE1CBF1C82E392E00E949A15F9
:1049A000C4010E9447170E94160D48EE53E0489D2F
:1049B0009001499D300D589D300D1124620F731FD9
:1049C000811D911D6A837B838C839D83DF91CF91B1
:1049D000FF90EF90DF90CF90BF90AF909F908F901F
:1049E00008950F931F93CF93DF93FC01428153816E
:1049F00064817581452B462B472B29F1EC010E94E0
:104A0000160D0A811B812C813D8106171707280787
:104A10003907C8F489E592E00E949A150E9426158C
:104A2000882351F08DE291E00E94021C64EF71E056
:104A300080E090E00E94E40CCE01DF91CF911F91C5
:104A40000F910C949E24DF91CF911F910F910895A7
:104A5000EF92FF920F931F93CF93DF938091A60263
:104A60009091A7026091A2027091A302FC0131967D
:104A7000E61BF70BA62F20E0422F50E04E175F07F2
:104A800040F448505D4F3A2F320FEA0138832F5FD0
:104A9000F3CF8F5F861BE82FF0E0E850FD4F8F3F8C
:104AA00019F011928F5FFBCFF12C2091A60230916B
:104AB000A7022F5F3F4F8091A2029091A30289012C
:104AC000081B190BCF2DD0E0C017D10798F40E9416
:104AD000DB35C850DD4FE880980150E040E00E948F
:104AE0004936E62FF0E0E850FD4F80818883E08270
:104AF000F394DBCFDF91CF911F910F91FF90EF9057
:104B000008958F929F92AF92BF92CF92DF92EF92D1
:104B1000FF920E94D51581E080934E048093A802F5
:104B20008AE99AE00E948B0E8EE492E00E94B91707
:104B3000E091F703F091F8036AE070E080810E9451
:104B4000061785E592E00E94AD1787E592E00E9486
:104B5000B917E091F703F091F80380810E940D17D7
:104B6000E091F703F091F80360E080810E940D1B53
:104B700068EB7BE080E090E00E94E40C0E949A1DCC
:104B80001092A80289E69AE00E949A15E091F70334
:104B9000F091F803808190E00E94271F0197909385
:104BA000A7028093A602BC0190E080E04AE00E9448
:104BB000C21685E59AE00E948B0EE091F703F09112
:104BC000F80380810E940D171092A5021092A40292
:104BD00081E090E09093A3028093A202E091F7031A
:104BE000F091F8038181813079F585E29AE00E94A5
:104BF0009A15E090A602F090A7028FEFE81AF80A43
:104C000082E0E816F10408F467C10E94DB359701E1
:104C100050E040E021503109410951090E944936D4
:104C2000DC01CB010196A11DB11D9093610480931D
:104C300060040E944717E091F703F091F803609138
:104C4000600480810E940D1BE091F703F091F8034E
:104C50008181823091F488EF99E00E949A1581E079
:104C600090E09093610480936004E091F703F091E9
:104C7000F80361E080810E940D1BE091F703F09141
:104C8000F8038181833011F58BEB99E00E949A152E
:104C90000E94282581E090E0909361048093600455
:104CA0008DEA99E00E948B0E8091F8020E940D1708
:104CB000E0916004F0916104E950FD4FA091F70389
:104CC000B091F80360818C910E940D1BE091F70375
:104CD000F091F8038181843091F488E799E00E9493
:104CE0009A15E091F703F091F8036281862F90E026
:104CF000909361048093600480810E940D1BE09179
:104D0000F703F091F8038181853031F585E399E06F
:104D10000E949A15E091F703F091F803F0808F2D2F
:104D200090E00E94333690E0909361048093600499
:104D3000009739F02091A6023091A7022817390771
:104D400030F481E090E0909361048093600460917E
:104D500060048F2D0E940D1BE091F703F091F80382
:104D60008181873009F051C084EF98E00E949A1544
:104D7000E091F703F091F8036AE070E082810E940D
:104D800006178EEE98E00E948B0EE091F703F091EB
:104D9000F80383810E940D17E091F703F091F80367
:104DA000C380D12CD092A702C092A6028FEFC81A5E
:104DB000D80AF12CE12C8280912CB12CA12C8C14DE
:104DC0009D04AE04BF048CF4C818D908EA08FB0897
:104DD00041F00E94DB35A70196010E9449366B0124
:104DE0007C018C0C9D1CAE1CBF1C909261048092B7
:104DF0006004C4010E944717E091F703F091F803A3
:104E00006091600480810E940D1BE091F703F09196
:104E1000F8038181883061F58FE998E00E949A1546
:104E2000E091F703F091F8036AE070E082810E945C
:104E3000061789E998E00E948B0EE091F703F09144
:104E4000F80383810E940D17E091F703F091F803B6
:104E5000838190E09093A7028093A6026281862FBF
:104E600090E0909361048093600480810E940D1B08
:104E7000E091F703F091F8038181893091F58CE49A
:104E800098E00E949A15E091F703F091F80382816F
:104E900090E09093A3028093A202838190E090938C
:104EA000A7028093A6020E94282581E090E09093BB
:104EB000610480936004E091F703F091F80360913E
:104EC000F8028081FF90EF90DF90CF90BF90AF907D
:104ED0009F908F900C940D1B81E090E0A0E0B0E0DB
:104EE000A4CEFF90EF90DF90CF90BF90AF909F90B7
:104EF0008F9008950F931F93CF93DF93C82F8BEC60
:104F00009AE00E948B0E6AE070E08C2F0E940617D8
:104F1000D0E0CE01880F991F880F991F8C01065091
:104F20001C4FF8012785222359F1875F9B4F9093EF
:104F3000F8038093F7038EE792E00E94B9176AE0C6
:104F400070E0F80187850E94061782EC9AE00E94C3
:104F50008B0ECC0FDD1FCC0FDD1FC65FDB4F8881B2
:104F60000E940D170E9481250E94D51568EE73E0FE
:104F700080E090E0DF91CF911F910F910C94E40CB1
:104F800089EA9AE0DF91CF911F910F910C949A15C5
:104F90001F93CF93DF93EC0183E894E00E949A156E
:104FA0001B851123E9F01B8689E0FE013296AFEEE6
:104FB000B2E001900D928A95E1F784EF92E0909330
:104FC000F8038093F7038091F4020E940D17E0919B
:104FD000F703F091F80381810E940D170E9481254B
:104FE000812FDF91CF911F9108951F920F920FB6DD
:104FF0000F9211242F933F938F939F93AF93BF935F
:105000008091650490916604A0916704B091680452
:105010003091640423E0230F2D3758F50196A11D2C
:10502000B11D209364048093650490936604A0935B
:105030006704B09368048091690490916A04A09118
:105040006B04B0916C040196A11DB11D809369049D
:1050500090936A04A0936B04B0936C04BF91AF91DA
:105060009F918F913F912F910F900FBE0F901F90A6
:10507000189526E8230F0296A11DB11DD2CF1F92CD
:105080000F920FB60F9211242F933F934F935F937C
:105090006F937F938F939F93AF93BF93EF93FF9300
:1050A00086E794E00E941C0EFF91EF91BF91AF91B3
:1050B0009F918F917F916F915F914F913F912F9130
:1050C0000F900FBE0F901F9018951F920F920FB662
:1050D0000F9211242F938F939F93EF93FF93E0915F
:1050E0008604F09187048081E0918C04F0918D0416
:1050F00082FD1BC0908180918F048F5F8F73209100
:105100009004821741F0E0918F04F0E0EA58FB4FE1
:10511000958F80938F04FF91EF919F918F912F91A5
:105120000F900FBE0F901F9018958081F4CF1F92A3
:105130000F920FB60F9211242F933F934F935F93CB
:105140006F937F938F939F93AF93BF93EF93FF934F
:10515000E091EB02F091EC02309749F0A685B7851B
:105160008585968D91FF14C09C918923A1F4FF91B0
:10517000EF91BF91AF919F918F917F916F915F91CF
:105180004F913F912F910F900FBE0F901F90189548
:105190009C91892361F7A389B4899C918589809525
:1051A00089238C93868997890197F1F7608D718D9A
:1051B000A685B785558538E020E0CB010197F1F74A
:1051C000822F90E095958795282F4C91452309F0E3
:1051D0002068315091F7868D81FD20958091EA02FB
:1051E00090E001968F7399273091E902381799F072
:1051F000A091EA02B0E0A755BD4F2C938093EA023C
:10520000828D938D0197F1F7A389B4898C9195894B
:10521000892B8C93ACCF868D8160868FF1CF1092D5
:1052200079041092780488EE93E0A0E0B0E08093D7
:105230007A0490937B04A0937C04B0937D0483EE66
:1052400091E0909377048093760485EC90E09093BE
:1052500083048093820484EC90E09093850480938F
:10526000840480EC90E0909387048093860481EC22
:1052700090E0909389048093880482EC90E090936E
:105280008B0480938A0486EC90E090938D04809345
:105290008C0410928F04109290041092910410923A
:1052A000920410928A05109291051092980510921E
:1052B000990510929A0510929B0581E080939705BD
:1052C000809394051092950592E0909396058093B3
:1052D00089058DE290E090938E0580938D050E9464
:1052E000DA369093930580939205009709F401C1F3
:1052F0002DE2FC0111922A95E9F78FE090E090935E
:105300008C0580938B0586E090E0909390058093C8
:105310008F0580918A05882341F061E086E00E9434
:10532000B00B60E086E00E94820BECE2F3E1E491D6
:10533000F0E0EE0FFF1FE45EFC4E85919491909398
:105340009D0580939C05EEE0F3E1E491E0939E05DA
:1053500080E09FEFA0E0B0E0809385059093860504
:10536000A0938705B09388058FEF90E0A0E0B0E0B0
:105370008093810590938205A0938305B093840563
:10538000109265051092640588EE93E0A0E0B0E00D
:105390008093660590936705A0936805B0936905AF
:1053A0008FEF91E0909363058093620510927905E9
:1053B0001092780510927B0510927A0510927D0567
:1053C00010927C0510927F0510927E0560918005F9
:1053D0006E7F6D7F609380056695617081E06827C0
:1053E00082E00E94820B61E082E00E94B00BEAE062
:1053F000F3E1E491E0937205E8E2F3E1E491F0E097
:10540000EE0FFF1FE45EFC4E85919491909374051E
:105410008093730560E083E00E94B00B809180056B
:1054200081FD04C061E083E00E94820B83E08093F1
:105430006E05EBE0F3E1E491E0936F05E9E2F3E15F
:10544000E491F0E0EE0FFF1FE250FD4E8591949144
:10545000909371058093700582E695E090935A05CC
:105460008093590582E390E09093600580935F05F7
:105470001092610585EF91E090934A05809349056C
:105480008AE08093570589E0809358058EE08093E9
:10549000370549E150E060E070E0409338055093F3
:1054A000390560933A0570933B0581E080933C0594
:1054B00080933D059FE090932505409326055093EA
:1054C0002705609328057093290580932A0580930A
:1054D0002B0590E190931305409314055093150507
:1054E000609316057093170580931805809319052E
:1054F000089510928E0510928D0510928C051092D1
:105500008B0501CFCF93DF93CDB7DEB7AA970FB648
:10551000F894DEBF0FBECDBF789484B5826084BDA1
:1055200084B5816084BD85B5826085BD85B58160A7
:1055300085BD80916E00816080936E001092810025
:1055400080918100826080938100809181008160E0
:1055500080938100809180008160809380008091A1
:10556000B10084608093B1008091B000816080932D
:10557000B00080917A00846080937A0080917A00F4
:10558000826080937A0080917A00816080937A00B3
:1055900080917A00806880937A001092C100809197
:1055A0008F059091900597FD08C061E00E94B00BB7
:1055B00060E080918F050E94820B81E080938A05D4
:1055C000609191056F3129F12091920530919305F9
:1055D0006150C9F070E08FEF9EE10E94AC36F90196
:1055E00040918D0550918E05CF01821B930B84173E
:1055F000950760F44081469FC001479F900D11249C
:1056000090833196EDCF70E060E0E9CF8FE1809339
:10561000910550E040E060E070E088E290E00E9498
:105620004E0A0E94110C1092500410924F0481E017
:105630008093570410925E04E0918604F0918704F1
:1056400082E08083E0918204F09183041082E091F3
:105650008404F091850480E1808310928E04E091AF
:105660008A04F0918B0486E08083E0918804F091B5
:105670008904808180618083E0918804F0918904AD
:10568000808188608083E0918804F0918904808122
:1056900080688083E0918804F091890480818F7D07
:1056A000808320E0E7E4E0937C0080917A008064CE
:1056B00080937A0080917A0086FDFCCF80917800FB
:1056C00090917900082F017010E04801110FAA088D
:1056D000BB08322F3F7104C0880C991CAA1CBB1C4C
:1056E0003A95D2F7C501B4016C257D258E259F25FD
:1056F0002F5F203809F0E5C18C149D04AE04BF046F
:1057000011F00E942A368FEE9FE00E949A158EEBD0
:105710009FE00E949A158BE89FE00E949A158AE507
:105720009FE00E949A1586E29FE00E949A1584EFFE
:105730009EE00E949A1582EF9EE00E949A1580EEEC
:105740009EE00E948B0E80E091E00E94AD178EECEF
:105750009EE00E949A158CEC9EE00E949A1581E8CA
:105760009EE00E949A1588E69EE00E949A1584E3C6
:105770009EE00E949A1586E29EE00E948B0E89E8C8
:1057800092E00E94B91783E29EE00E948B0E85E9A9
:1057900092E00E94AD1760E084E00E94B00B0E948E
:1057A0003C200E945717E0915905F0915A05138E3D
:1057B000128E118E108E178A168A8DE991E0958FC0
:1057C000848F8485863108F03DC02DEB30E0378B27
:1057D000268B2BE931E0318F208F2CE231E0338FA3
:1057E000228F90916800883008F46EC121E08E30DD
:1057F00008F420E081E001C0880F2A95EAF7892BA0
:105800008093680094852DE630E0983050F02BE6C8
:1058100030E09E3030F02CE630E0963110F030E091
:1058200020E0348B238B292F30E0983008F04EC1D4
:1058300081E001C0880F9A95EAF7858B848D958D5C
:105840000197F1F7828D938D892B41F14091EB0205
:105850005091EC02E417F50709F14115510569F083
:10586000DA0153962D913C91D9019C91DA0155961C
:105870008C9180958923D9018C93868D8E7F868F1C
:105880001092EA021092E902F093EC02E093EB022C
:10589000A389B4898C919589892B8C93E0915905C2
:1058A000F0915A0580E197E2A0E0B0E0848395830F
:1058B000A683B7830E94160D60935B0570935C0509
:1058C00080935D0590935E0583E19EE00E949A15AA
:1058D0000E947F1581E080934D0410914D04412F6B
:1058E00050E060E078E288E290E00E944E0A0E9478
:1058F000110C68EC70E080E090E00E94E40C1F5F07
:1059000010934D041F3048F36091010460935304D9
:1059100070E086E00E948E1A609102046150770B5D
:1059200087E00E948E1A83E09EE00E949A151FB7BE
:10593000F8948091ED02811127C0E0E3F3E18491B6
:10594000E2E1F3E19491E82FF0E0EE0FFF1FE6545F
:10595000FD4EA591B491EC91E92321F461E08AE038
:105960000E94820B61E08AE00E94B00B8CB58061DE
:105970008CBD8CB580648CBD61E08DE00E94B00B65
:1059800061E08BE00E94B00B8091ED028F5F80930D
:10599000ED021FBF61E0809157050E94B00B61E0EE
:1059A000809157050E94820B809158058F3F09F422
:1059B0009AC060E00E94B00B809158050E94590B7C
:1059C000892B09F090C061E0809158050E94B00BCE
:1059D00060E0809158050E94820B83E090E001977F
:1059E000F1F761E0809158050E94820B62E370E05C
:1059F00080E090E00E94E40C40E064E289E495E0FD
:105A00000E940B1040E066E289E495E00E940B10D2
:105A100046E268E489E495E00E940B1040E864E502
:105A200089E495E00E940B1049EA66E589E495E077
:105A30000E940B1043E068E589E495E00E940B109A
:105A400048EE6AE589E495E00E940B1040E46AE2C2
:105A500089E495E00E940B104DE362E289E495E051
:105A60000E940B1068E289E495E00E94ED0F982FE8
:105A70009370933039F0482F436068E289E495E0F1
:105A80000E940B106EE689E495E00E94ED0F182F3E
:105A900084EA9DE00E948B0E60E170E0812F0E94FD
:105AA000061781E99DE01039E9F1A0F58DE69DE04A
:105AB0001231C1F189E99DE01838A1F180E69DE03D
:105AC00031C06B017C01EFCD84E099CE9E3040F473
:105AD0002850310981E001C0880F2A95EAF7ADCE40
